S01100006D696E65726F7665722E737265633C
S11300000C9434000C9446000C9446000C94460066
S11300100C9446000C9446000C9446000C94460044
S11300200C9446000C9446000C9446000C94460034
S11300300C9446000C9446000C9446000C94460024
S11300400C9446000C9446000C94DC010C942102A0
S11300500C9446000C9446000C9446000C94460004
S11300600C9446000C94460011241FBECFEFD8E038
S1130070DEBFCDBF21E0A0E0B1E001C01D92A23DF2
S1130080B207E1F70E9448000C94D8020C940000D7
S1130090CF93DF9300D000D01F92CDB7DEB70E947C
S11300A09F000E94F4000E9429010E942A01789472
S11300B07E0186E0E80EF11C0E94B4018231E1F772
S11300C08E010E5F1F4F0E94B401F80181938F01CE
S11300D0EE15FF05C1F78D81813271F78A8184564F
S11300E0181624F461E00E94BE000DC0811105C001
S11300F060E080E00E94BE0006C0882324F46FEF15
S113010081950E94BE008B818456181624F461E008
S11301100E94D9000DC0811105C060E080E00E94FA
S1130120D90006C0882324F46FEF81950E94D9007A
S11301308C810E94130188EF0E947601BDCF84B1A7
S1130140806384B98AB1846E8AB985B18F7C85B99C
S11301508BB18B778BB917BC18BC14BC15BC84B598
S1130160806884BD84B5806284BD84B5836084BDA9
S113017085B585BD85B5816085BD0895853608F052
S113018084E616161CF42C9A2D9809C0611103C03C
S11301902C982D9804C0662314F42C982D9A2FEFD4
S11301A0829FC001112464E670E00E94600268BD71
S11301B00895853608F084E616161CF45A9A5F985A
S11301C009C0611103C05A985F9804C0662314F4EF
S11301D05A985F9A2FEF829FC001112464E670E061
S11301E00E94600267BD08958FE19EE490938700AA
S11301F080938600A0E8B0E01C92E1E8F0E0108271
S1130200229A8BED95E090938B0080938A008C91D9
S113021080628C938C918C938081806180838081B7
S1130220826080830895853B08F084EB282F30E0BA
S1130230A8EEB3E00E94930224EB30E040E050E0EB
S11302400E94740229513C4F30938B0020938A0002
S113025008950895CF93DF9384E6E9E6F1E0DF01A2
S1130260982F1D929A95E9F71092CE011092CD0124
S11302701092D0011092CF011092D101E0E0F1E090
S1130280DF011D928A95E9F71092650110926401CD
S1130290109267011092660110926801C0ECD0E0E0
S11302A01882A1ECB0E01C92E2ECF0E01082109213
S11302B0C50083E38093C400888188838881888310
S11302C08C91806A8C938C9188618C938C918C93A3
S11302D08081866080838081808380818083808127
S11302E0808380818083DF91CF9108952091CF0115
S11302F03091D0012436310520F081E08093D10182
S113030008959FB7991F9927991FF894ADECB1E010
S1130310ED91FC911197E759FE4F8083EFECF1E0EA
S1130320208131812F5F3F4F318320832D913C9178
S11303302336310529F41092CE011092CD0108C064
S1130340EDECF1E0208131812F5F3F4F3183208339
S1130350E1ECF0E0808180628083992319F0789445
S113036080E0089580E00895E6E6F1E080819181DF
S1130370892BE1F39FB7F894E4E6F1E02081318121
S1130380A6E6B1E02D913C9111970190F081E02D0A
S11303902D913C911197E21BF30BE050FF4F8081AC
S11303A02D913C9111972150310911963C932E9334
S11303B099230CF4789408951F920F920FB60F921C
S11303C011242F938F939F93AF93BF93EF93FF9336
S11303D02091C60080916601909167018436910551
S11303E020F081E08093680120C0A4E6B1E0ED91A3
S11303F0FC911197E050FF4F2083E6E6F1E0808105
S113040091810196918380838D919C91833691058E
S113041029F4109265011092640107C0E4E6F1E04A
S113042080819181019691838083FF91EF91BF91A7
S1130430AF919F918F912F910F900FBE0F901F90AE
S113044018951F920F920FB60F9211248F939F93BA
S1130450AF93BF93EF93FF938091CF019091D0011D
S1130460892BF1F0EDECF1E080819181AFECB1E00A
S11304708D919C9111970190F081E02D8D919C912B
S11304801197E81BF90BE759FE4F80818093C60052
S11304908D919C911197019711969C938E9305C011
S11304A0E1ECF0E080818F7D8083FF91EF91BF913B
S11304B0AF919F918F910F900FBE0F901F90189541
S11304C097FB072E16F4009407D077FD09D00E94FD
S11304D0A20207FC05D03EF4909581959F4F0895A4
S11304E0709561957F4F0895052E97FB1EF4009437
S11304F00E948B0257FD07D00E94B60207FC03D06E
S11305004EF40C948B0250954095309521953F4FB5
S11305104F4F5F4F089590958095709561957F4FEB
S11305208F4F9F4F0895A29FB001B39FC001A39F17
S1130530700D811D1124911DB29F700D811D112418
S1130540911D0895AA1BBB1B51E107C0AA1FBB1F25
S1130550A617B70710F0A61BB70B881F991F5A954B
S1130560A9F780959095BC01CD010895A1E21A2EBA
S1130570AA1BBB1BFD010DC0AA1FBB1FEE1FFF1F43
S1130580A217B307E407F50720F0A21BB30BE40B93
S1130590F50B661F771F881F991F1A9469F76095DA
S11305A07095809590959B01AC01BD01CF01089594
S10705B0F894FFCFE9
S9030000FC
