S01100006D696E65726F7665722E737265633C
S11300000C9434000C9446000C9446000C94460066
S11300100C9446000C9446000C9446000C94CE01BB
S11300200C9446000C9446000C9446000C94460034
S11300300C9446000C9446000C9446000C94460024
S11300400C9446000C9446000C94C4020C940903CE
S11300500C9446000C9446000C9446000C94460004
S11300600C9446000C94460011241FBECFEFD8E038
S1130070DEBFCDBF21E0A0E0B1E001C01D92AA3DEA
S1130080B207E1F70E9448000C9485050C94000027
S1130090CF93DF9300D000D01F92CDB7DEB7229A62
S11300A00E94C9000E941E010E9453010E940D0279
S11300B078940E947F014B015C017E0186E0E80E8A
S11300C0F11C0E945902882309F44BC00E949C022F
S11300D0823109F046C08E010E5F1F4F0E949C02C0
S11300E0F80181938F01EE15FF05C1F78D818938E1
S11300F0A9F58A818456181624F461E00E94E80068
S11301000DC0811105C060E080E00E94E80006C0D7
S1130110882324F46FEF81950E94E8008B81845634
S1130120181624F461E00E9403010DC0811105C07A
S113013060E080E00E94030106C0882324F46FEF8E
S113014081950E9403018C810E943D010E947F01E0
S11301504B015C0188EF0E945E0203C088E00E94AC
S11301605E020E947F01A50194010E94480320E0E1
S113017030E048EC52E40E94DA0418160CF0A1CFE7
S113018060E080E00E94E80060E080E00E940301FB
S113019098CF84B1806384B98AB1846E8AB985B1F9
S11301A08F7C85B98BB18B778BB917BC18BC14BC09
S11301B015BC84B5806884BD84B5806284BD84B573
S11301C0836084BD85B585BD85B5816085BD089591
S11301D0853608F084E616161CF42C9A2D9809C06E
S11301E0611103C02C982D9804C0662314F42C9834
S11301F02D9A2FEF829FC001112464E670E00E94C3
S1130200DF0468BD0895853608F084E616161CF4EC
S11302105A9A5F9809C0611103C05A985F9804C044
S1130220662314F45A985F9A2FEF829FC001112419
S113023064E670E00E94DF0467BD08958FE097E2F2
S11302409093870080938600A0E8B0E01C92E1E8D8
S1130250F0E01082219A8DEE92E0909389008093D1
S113026088008C9180688C938C918C9380818061C0
S113027080838081826080830895853608F084E6D7
S1130280282F30E0A4EFB1E00E94120524E630E00C
S113029040E050E00E94F3042D503E4F309389001B
S11302A0209388000895CF93DF931092D201109287
S11302B0D3011092D4011092D5011092D60110925C
S11302C0D7011092D8011092D901C0EBD0E0188266
S11302D0E1EBF0E01082A0E7B0E01C9283E68093AB
S11302E0B30088818260888380818083808182607A
S11302F080838C9182608C93DF91CF9108958F924B
S11303009F92AF92BF92CF92DF92EF92FF920F93A0
S11303101F93CF93DF938090D2019090D301D0911B
S1130320D401C091D501B091D601A091D701F0912B
S1130330D801E091D901282D392D4D2F5C2F6B2F39
S11303407A2F8F2F9E2F06E00E942105A82CB92C0E
S1130350CD2EDC2EEB2EFA2E0F2F1E2F0E944605DB
S113036001E00E9421050F2F0E94460503E00E9430
S113037021050E94270420E030E44CE156E40E9469
S1130380B503DF91CF911F910F91FF90EF90DF9014
S1130390CF90BF90AF909F908F9008951F920F922F
S11303A00FB60F9211242F933F934F935F936F9344
S11303B07F938F939F93AF932091D2013091D30178
S11303C04091D4015091D5016091D6017091D7012B
S11303D08091D8019091D901A1E00E943A0520931F
S11303E0D2013093D3014093D4015093D50160934B
S11303F0D6017093D7018093D8019093D901AF911E
S11304009F918F917F916F915F914F913F912F9128
S11304100F900FBE0F901F901895CF93DF9384E633
S1130420E9E6F1E0DF01982F1D929A95E9F7109221
S1130430CE011092CD011092D0011092CF011092F2
S1130440D101E0E0F1E0DF011D928A95E9F7109215
S11304506501109264011092670110926601109276
S11304606801C0ECD0E01882A1ECB0E01C92E2EC90
S1130470F0E010821092C50083E38093C400888169
S11304808883888188838C91806A8C938C9188611D
S11304908C938C918C93808186608083808180830F
S11304A0808180838081808380818083DF91CF916C
S11304B00895809166019091670108952091CF017C
S11304C03091D0012436310520F081E08093D101B0
S11304D008959FB7991F9927991FF894ADECB1E03F
S11304E0ED91FC911197E759FE4F8083EFECF1E019
S11304F0208131812F5F3F4F318320832D913C91A7
S11305002336310529F41092CE011092CD0108C092
S1130510EDECF1E0208131812F5F3F4F3183208367
S1130520E1ECF0E0808180628083992319F0789473
S113053080E0089580E00895E6E6F1E0808191810D
S1130540892BE1F39FB7F894E4E6F1E0208131814F
S1130550A6E6B1E02D913C9111970190F081E02D38
S11305602D913C911197E21BF30BE050FF4F8081DA
S11305702D913C9111972150310911963C932E9362
S113058099230CF4789408951F920F920FB60F924A
S113059011242F938F939F93AF93BF93EF93FF9364
S11305A02091C6008091660190916701843691057F
S11305B020F081E08093680120C0A4E6B1E0ED91D1
S11305C0FC911197E050FF4F2083E6E6F1E0808133
S11305D091810196918380838D919C9183369105BD
S11305E029F4109265011092640107C0E4E6F1E079
S11305F080819181019691838083FF91EF91BF91D6
S1130600AF919F918F912F910F900FBE0F901F90DC
S113061018951F920F920FB60F9211248F939F93E8
S1130620AF93BF93EF93FF938091CF019091D0014B
S1130630892BF1F0EDECF1E080819181AFECB1E038
S11306408D919C9111970190F081E02D8D919C9159
S11306501197E81BF90BE759FE4F80818093C60080
S11306608D919C911197019711969C938E9305C03F
S1130670E1ECF0E080818F7D8083FF91EF91BF9169
S1130680AF919F918F910F900FBE0F901F9018956F
S11306905058BB27AA270E9460030C94A0040E9410
S11306A0920438F00E94990420F039F49F3F19F421
S11306B026F40C948F040EF4E095E7FB0C94890463
S11306C0E92F0E94B10458F3BA176207730784072D
S11306D0950720F079F4A6F50C94D3040EF4E09574
S11306E00B2EBA2FA02D0B01B90190010C01CA01E8
S11306F0A0011124FF27591B99F0593F50F4503E93
S113070068F11A16F040A22F232F342F4427585F84
S1130710F3CF469537952795A795F0405395C9F79C
S11307207EF41F16BA0B620B730B840BBAF0915054
S1130730A1F0FF0FBB1F661F771F881FC2F70EC0F3
S1130740BA0F621F731F841F48F4879577956795C6
S1130750B795F7959E3F08F0B0CF9395880F08F0B2
S11307609927EE0F9795879508950E94C9030C94D5
S1130770A0040E94990458F00E94920440F029F4C5
S11307805F3F29F00C94890451110C94D4040C9407
S11307908F040E94B10468F39923B1F3552391F3B4
S11307A0951B550BBB27AA2762177307840738F0DC
S11307B09F5F5F4F220F331F441FAA1FA9F335D039
S11307C00E2E3AF0E0E832D091505040E695001CED
S11307D0CAF72BD0FE2F29D0660F771F881FBB1FA7
S11307E0261737074807AB07B0E809F0BB0B802D85
S11307F0BF01FF2793585F4F3AF09E3F510578F0B1
S11308000C9489040C94D4045F3FE4F3983ED4F32D
S1130810869577956795B795F7959F5FC9F7880F84
S1130820911D9695879597F90895E1E0660F771FD6
S1130830881FBB1F621773078407BA0720F0621B67
S1130840730B840BBA0BEE1F88F7E0950895E894B8
S1130850F92F96EBFF2381F0121613061406440BAE
S11308609395F69587957795679557954040FF231F
S1130870B9F71BC099270895882351F49850D2F7EB
S1130880872B762F652F542F432F322F20E0B1F37F
S1130890121613061406440B88233AF09A95440F53
S11308A0551F661F771F881FCAF755234AF4440F44
S11308B0551F11F460FF04C06F5F7F4F8F4F9F4F30
S11308C0880F9695879597F90895990F0008550F05
S11308D0AA0BE0E8FEEF16161706E807F907C0F0C2
S11308E012161306E407F50798F0621B730B840BCA
S11308F0950B39F40A2661F0232B242B252B21F4A4
S113090008950A2609F4A140A6958FEF811D811D43
S1130910089597F99F6780E870E060E008959FEF7D
S113092080EC089500240A94161617061806090682
S1130930089500240A941216130614060506089551
S1130940092E0394000C11F4882352F0BB0F40F4D9
S1130950BF2B11F460FF04C06F5F7F4F8F4F9F4F19
S1130960089557FD9058440F551F59F05F3F71F09B
S11309704795880F97FB991F61F09F3F79F0879502
S11309800895121613061406551FF2CF4695F1DF8B
S113099008C0161617061806991FF1CF869571051B
S11309A0610508940895E894BB2766277727CB014F
S11309B097F908950E94650408F48FEF089597FB52
S11309C0072E16F4009407D077FD09D00E944F0536
S11309D007FC05D03EF4909581959F4F089570953E
S11309E061957F4F0895052E97FB1EF400940E9495
S11309F00A0557FD07D00E94630507FC03D04EF497
S1130A000C940A0550954095309521953F4F4F4FD2
S1130A105F4F089590958095709561957F4F8F4FA6
S1130A209F4F0895A29FB001B39FC001A39F700D73
S1130A30811D1124911DB29F700D811D1124911DE2
S1130A4008950F93083090F0982F872F762F652FF5
S1130A50542F432F322F22270850F4CF220F331F55
S1130A60441F551F661F771F881F991F0A95B2F7E9
S1130A700F9108950024A7FD00942A0F301D401DF6
S1130A80501D601D701D801D901D08952A193B097D
S1130A904C095D096E097F09800B910B0895AA1B0F
S1130AA0BB1B51E107C0AA1FBB1FA617B70710F055
S1130AB0A61BB70B881F991F5A95A9F78095909587
S1130AC0BC01CD010895A1E21A2EAA1BBB1BFD0196
S1130AD00DC0AA1FBB1FEE1FFF1FA217B307E40719
S1130AE0F50720F0A21BB30BE40BF50B661F771F71
S1130AF0881F991F1A9469F7609570958095909551
S1110B009B01AC01BD01CF010895F894FFCF15
S9030000FC
